:100000004DC3000091C300008FC300008DC30000EA
:100010008BC3000089C3000016C4000047C4000061
:1000200078C40000A9C400007FC300007DC30000A5
:100030007BC3000079C30000B8C50000EEC5000016
:1000400024C600005AC6000090C60000C6C60000C4
:10005000FCC6000032C7000068C700009EC7000051
:1000600063C3000061C300005FC300005DC3000004
:100070005BC3000059C3000057C3000055C3000014
:1000800053C3000051C300004FC300004DC3000024
:100090004BC3000049C3000047C3000045C3000034
:1000A00043C3000041C300003FC300003DC3000044
:1000B0003BC3000039C3000037C300000C94350A6D
:1000C0000C946D0A0C94A50A0C94DD0A0C94150B83
:1000D0000C944D0B29C3000027C3000025C300006A
:1000E00023C3000021C300001FC300001DC3000084
:1000F0001BC3000019C3000017C3000015C3000094
:1001000013C3000011C300000FC300000DC30000A3
:100110000BC3000009C3000007C3000005C30000B3
:1001200003C3000001C30000FFC20000FDC20000C5
:10013000FBC200006AC70000A0C70000D6C70000CD
:100140000C94AD080C94E5080C941D090C94550909
:100150000C948D090C94C5090C94FD09E5C20000AE
:10016000E3C20000E1C20000DFC20000DDC2000007
:10017000DBC20000D9C20000D7C20000D5C2000017
:10018000D3C20000D1C20000CFC20000CDC2000027
:10019000CBC20000C9C20000C7C20000C5C2000037
:1001A000C3C20000C1C20000BFC20000BDC2000047
:1001B000BBC20000B9C20000B7C20000B5C2000057
:1001C000B3C20000B1C20000AFC20000ADC2000067
:1001D000ABC20000A9C20000A7C20000A5C2000077
:1001E000A3C20000A1C200009FC200009DC2000087
:1001F0009BC200000C94EC1697C20000E911081293
:10020000CB120812CB1247125B12CB12A412AD1202
:10021000F82610272D274D276E2784278E279F2706
:10022000B827CE27E427FA270F289C3247329C3282
:1002300047320C3397345C33F333FB39003A053AD9
:100240000A3AD539BD390E3ADD390E3A0E3A0E3A30
:100250009D3907634236B79BD8A71A39685618AE3E
:10026000BAAB558C1D3CB7CC5763BD6DEDFD753EEB
:10027000F6177231BF000000803F05A84CCDB2D404
:100280004EB93836A9020C50B9918688083CA6AA06
:10029000AA2ABE000000803F08000000BE92244948
:1002A000123EABAAAA2ABECDCCCC4C3E00000080A8
:1002B000BEABAAAAAA3E00000000BF000000803F1B
:1002C0000000000000084178D3BB4387D1133D19DB
:1002D0000E3CC3BD4282AD2B3E68EC8276BED98F08
:1002E000E1A93E4C80EFFFBE01C4FF7F3F0000004C
:1002F00000000101020202020303040505060708CB
:100300000A0B0D0F1215181C21262C333C46515E8A
:100310006E7F0101010101010101010101020202DF
:1003200002020202020202020202020303030303A8
:100330000303030404040404040405050505050679
:1003400006060606070707080808080909090A0A31
:100350000B0B0B0C0C0D0D0E0E0F101011111213B8
:1003600014141516171819191A1C1D1E1F202123E5
:10037000242527282A2B2D2F31333537393B3D4073
:100380004245474A4D5053565A5D6164686C7175D9
:100390007A7F000000FF0000FF1500FF2200FF2E03
:1003A00000FF3B00FF4400FF5000FF5D00FF6A00BC
:1003B000FF7700FF7F00FF8C00FF9900FFA500FF83
:1003C000B200FFBF00FFC700FFD400FFE100FFEE57
:1003D00000FFFA00FAFF00EDFF00E1FF00D4FF008C
:1003E000C7FF00BFFF00B2FF00A5FF0099FF008C10
:1003F000FF007FFF0077FF006AFF005DFF0050FFF6
:100400000043FF003BFF002EFF0021FF0015FF000F
:1004100008FF0000FF0000FF0C00FF1900FF26008E
:10042000FF3300FF3F00FF4800FF5400FF6100FF63
:100430006E00FF7B00FF8300FF9000FF9D00FFAA7E
:1004400000FFB600FFBF00FFCB00FFD800FFE500B4
:10045000FFF200FFFF00F6FF00E9FF00DCFF00D025
:10046000FF00C3FF00BBFF00AEFF00A1FF0094FF31
:100470000087FF007FFF0072FF0066FF0059FF004A
:100480004CFF003FFF0037FF002AFF001DFF001058
:10049000FF0004FF0400FF1000FF1D00FF2A00FF03
:1004A0003700FF3F00FF4C00FF5900FF6600FF725E
:1004B00000FF7F00FF8700FF9400FFA100FFAE0058
:1004C000FFBA00FFC300FFD000FFDD00FFE900FF1F
:1004D000F600FFFF00FFFF00F2FF00E5FF00D8FF7E
:1004E00000CCFF00BFFF00B6FF00A9FF009DFF008A
:1004F00090FF0083FF007BFF006EFF0061FF00554F
:10050000FF0048FF003FFF0032FF0026FF0019E117
:10051000F0F00000000000000000000000000000FB
:1005200000007F0000007F0000007F0000007F00CF
:100530000000000000007F000000000000007F00BD
:10054000000000000000000000000055007F0000D7
:100550007F007F00005500006400006E00007F00F7
:1005600000001455007F00007F0000007F00002382
:100570005555557F7F0000006E7F640000000055D8
:10058000555555146E007F0A6414002D7F006E2DA2
:100590004B237F007F007F006E7F007F007F7F0006
:1005A0007F007F007F7F7F007F7F7F007F7F7F7F57
:1005B0007F7F557F647F557F557F557F557F6E7F49
:1005C000647F1203360036003600360036003600EF
:1005D0003600410000002A034D00690064006900F4
:1005E0002000460069006700680074006500720022
:1005F00020005400770069007300740065007200E9
:1006000000001C0344004A00200054006500630001
:100610006800200054006F006F006C007300000041
:10062000040309040902650002010080F0090400C6
:100630000000010100000924010001090001010975
:10064000040100020103000007240100014100062B
:10065000240201010006240202020009240301030E
:10066000010201000924030204010101000905013E
:100670000240000000000525010101090582024039
:100680000000000005250101031201100100000017
:1006900040802507000100010200010011241FBE57
:1006A000CFEFCDBFDFE3DEBF00E00CBF18BE19BE49
:1006B0001ABE1BBE8091780083FF1CC080911A393E
:1006C00090911B39A0911C39B0911D398A3C9C4AEC
:1006D000A244BC4D79F410921A3910921B39109231
:1006E0001C3910921D3981E08CBFE0910020F091FF
:1006F0000120199510E2A0E0B0E2E0E1F5E900E0A8
:100700000BBF02C007900D92A636B107D9F71BBEEA
:1007100029E3A6E6B0E201C01D92AA31B207E1F7D3
:100720000E947A450C94864A6BCC2FB7F894FC0152
:10073000E059FF4F60958081682360832FBF089543
:100740001BBEFC0128ED24BF608308950F931F9307
:10075000CF93DF93E82FF0E0DF01519634E0AA0F4A
:10076000BB1F3A95E1F72091040160910301EF016D
:10077000249641E050E08A01082E01C0000F0A943F
:10078000EAF70C2E01C0440F0A94EAF7402B6423C9
:1007900070E08B010C2E02C0159507950A94E2F7C4
:1007A00000FD1DC0082E02C0759567950A94E2F7FA
:1007B00060FD18C04223242F30E0A90102C05595E6
:1007C0004795CA95E2F740FD10C0A90102C05595B2
:1007D00047958A95E2F7CA018170992708C084E09D
:1007E00090E005C083E090E002C082E090E01196C6
:1007F0002C911197206311962C93EE0FFF1FE85850
:10080000F44D0190F081E02D309729F0DF91CF91E8
:100810001F910F911994DF91CF911F910F9108951E
:1008200061E080E090E081DF9FB7F894E2E7FBE2CF
:1008300081818F5F81839FBFE0E0F1E080E480836E
:1008400080E8808308951F920F920FB60F921124B3
:1008500008B60F9218BE09B60F9219BE0BB60F92CA
:100860001BBE2F933F934F935F936F937F938F9311
:100870009F93AF93BF93EF93FF9380E067DFFF9168
:10088000EF91BF91AF919F918F917F916F915F9108
:100890004F913F912F910F900BBE0F9009BE0F907B
:1008A00008BE0F900FBE0F901F9018951F920F92C9
:1008B0000FB60F92112408B60F9218BE09B60F9208
:1008C00019BE0BB60F921BBE2F933F934F935F93AE
:1008D0006F937F938F939F93AF93BF93EF93FF9308
:1008E00081E034DFFF91EF91BF91AF919F918F91A4
:1008F0007F916F915F914F913F912F910F900BBE20
:100900000F9009BE0F9008BE0F900FBE0F901F9062
:1009100018951F920F920FB60F92112408B60F92DE
:1009200018BE09B60F9219BE0BB60F921BBE2F93BD
:100930003F934F935F936F937F938F939F93AF9367
:10094000BF93EF93FF9382E001DFFF91EF91BF919F
:10095000AF919F918F917F916F915F914F913F9157
:100960002F910F900BBE0F9009BE0F9008BE0F90F5
:100970000FBE0F901F9018951F920F920FB60F92F7
:10098000112408B60F9218BE09B60F9219BE0BB605
:100990000F921BBE2F933F934F935F936F937F9361
:1009A0008F939F93AF93BF93EF93FF9383E0CEDE3C
:1009B000FF91EF91BF91AF919F918F917F916F9137
:1009C0005F914F913F912F910F900BBE0F9009BEF9
:1009D0000F9008BE0F900FBE0F901F901895DB016F
:1009E000E82FF0E0719684E0EE0FFF1F8A95E1F7A3
:1009F0009FB7F89419968C91199784871A968C91C1
:100A00001A978587168617968C9117978087189660
:100A10008C9118978187128612968C9112978283F7
:100A200013968C911397838314962D913C9115976F
:100A30002483358316968C911697868311968C9114
:100A4000119781838C918F7780839FBF08958091C8
:100A5000CF0187FDFCCF08951F93CF93DF93C0ECA8
:100A6000D1E01A858A8761E08BEC91E069DE1A8714
:100A7000DF91CF911F910895CF93DF93EC01E7DFD2
:100A8000ECECF1E0808188608083D05F8881908188
:100A9000977F9083DF91CF910895CF92DF92EF926D
:100AA000FF920F931F93CF93DF938C017B016A0119
:100AB000CEDFCCECD1E0888188608883B801705F9C
:100AC000A601C7010E94764A8881877F8883DF91CB
:100AD000CF911F910F91FF90EF90DF90CF900895ED
:100AE000B6DF8091CF0181FF07C086E38093CA0102
:100AF00061E08BEC91E024CE0895CF93DF93C82F73
:100B0000D62FA5DFACECB1E08C9188608C93EC2FF4
:100B1000F0E0F05FD0838C91877F8C93DF91CF9151
:100B20000895EF92FF920F931F93CF93DF93182FA7
:100B3000F92EE62EC0ECD1E00A85D2DF88DF6E2DDB
:100B4000812FDBDF1A82F982188385E38A8761E0CF
:100B50008BEC91E0F5DD0A87DF91CF911F910F912A
:100B6000FF90EF9008950F931F93CF938C016FDF49
:100B7000C0E0F80161918F018C2FBFDFCF5FC032E1
:100B8000C1F7CF911F910F910895CF93C82F5FDFC9
:100B900020E2C29FC0011124E0ECF1E012829183B7
:100BA000808385E390E0CF9157CF1F920F920FB6CD
:100BB0000F92112408B60F9218BE09B60F9219BEF3
:100BC0000BB60F921BBE2F933F934F935F936F9380
:100BD0007F938F939F93AF93BF93EF93FF93E09196
:100BE0009820F0919920309709F01995FF91EF9195
:100BF000BF91AF919F918F917F916F915F914F9135
:100C00003F912F910F900BBE0F9009BE0F9008BE21
:100C10000F900FBE0F901F9018951F920F920FB656
:100C20000F92112408B60F9218BE09B60F9219BE82
:100C30000BB60F921BBE2F933F934F935F936F930F
:100C40007F938F939F93AF93BF93EF93FF93E09125
:100C50009620F0919720309709F01995FF91EF9128
:100C6000BF91AF919F918F917F916F915F914F91C4
:100C70003F912F910F900BBE0F9009BE0F9008BEB1
:100C80000F900FBE0F901F9018951F920F920FB6E6
:100C90000F92112408B60F9218BE09B60F9219BE12
:100CA0000BB60F921BBE2F933F934F935F936F939F
:100CB0007F938F939F93AF93BF93EF93FF93E091B5
:100CC0009420F0919520309709F01995FF91EF91BC
:100CD000BF91AF919F918F917F916F915F914F9154
:100CE0003F912F910F900BBE0F9009BE0F9008BE41
:100CF0000F900FBE0F901F9018951F920F920FB676
:100D00000F92112408B60F9218BE09B60F9219BEA1
:100D10000BB60F921BBE2F933F934F935F936F932E
:100D20007F938F939F93AF93BF93EF93FF93E09144
:100D30009220F0919320309709F01995FF91EF914F
:100D4000BF91AF919F918F917F916F915F914F91E3
:100D50003F912F910F900BBE0F9009BE0F9008BED0
:100D60000F900FBE0F901F9018951F920F920FB605
:100D70000F92112408B60F9218BE09B60F9219BE31
:100D80000BB60F921BBE2F933F934F935F936F93BE
:100D90007F938F939F93AF93BF93EF93FF93E091D4
:100DA0009020F0919120309709F01995FF91EF91E3
:100DB000BF91AF919F918F917F916F915F914F9173
:100DC0003F912F910F900BBE0F9009BE0F9008BE60
:100DD0000F900FBE0F901F9018951F920F920FB695
:100DE0000F92112408B60F9218BE09B60F9219BEC1
:100DF0000BB60F921BBE2F933F934F935F936F934E
:100E00007F938F939F93AF93BF93EF93FF93E09163
:100E10008E20F0918F20309709F01995FF91EF9176
:100E2000BF91AF919F918F917F916F915F914F9102
:100E30003F912F910F900BBE0F9009BE0F9008BEEF
:100E40000F900FBE0F901F9018951F920F920FB624
:100E50000F92112408B60F9218BE09B60F9219BE50
:100E60000BB60F921BBE2F933F934F935F936F93DD
:100E70007F938F939F93AF93BF93EF93FF93E091F3
:100E80008C20F0918D20309709F01995FF91EF910A
:100E9000BF91AF919F918F917F916F915F914F9192
:100EA0003F912F910F900BBE0F9009BE0F9008BE7F
:100EB0000F900FBE0F901F9018951F920F920FB6B4
:100EC0000F92112408B60F9218BE09B60F9219BEE0
:100ED0000BB60F921BBE2F933F934F935F936F936D
:100EE0007F938F939F93AF93BF93EF93FF93E09183
:100EF0008A20F0918B20309709F01995FF91EF919E
:100F0000BF91AF919F918F917F916F915F914F9121
:100F10003F912F910F900BBE0F9009BE0F9008BE0E
:100F20000F900FBE0F901F9018951F920F920FB643
:100F30000F92112408B60F9218BE09B60F9219BE6F
:100F40000BB60F921BBE2F933F934F935F936F93FC
:100F50007F938F939F93AF93BF93EF93FF93E09112
:100F60008820F0918920309709F01995FF91EF9131
:100F7000BF91AF919F918F917F916F915F914F91B1
:100F80003F912F910F900BBE0F9009BE0F9008BE9E
:100F90000F900FBE0F901F9018951F920F920FB6D3
:100FA0000F92112408B60F9218BE09B60F9219BEFF
:100FB0000BB60F921BBE2F933F934F935F936F938C
:100FC0007F938F939F93AF93BF93EF93FF93E091A2
:100FD0008620F0918720309709F01995FF91EF91C5
:100FE000BF91AF919F918F917F916F915F914F9141
:100FF0003F912F910F900BBE0F9009BE0F9008BE2E
:101000000F900FBE0F901F9018951F920F920FB662
:101010000F92112408B60F9218BE09B60F9219BE8E
:101020000BB60F921BBE2F933F934F935F936F931B
:101030007F938F939F93AF93BF93EF93FF93E09131
:101040008420F0918520309709F01995FF91EF9158
:10105000BF91AF919F918F917F916F915F914F91D0
:101060003F912F910F900BBE0F9009BE0F9008BEBD
:101070000F900FBE0F901F9018951F920F920FB6F2
:101080000F92112408B60F9218BE09B60F9219BE1E
:101090000BB60F921BBE2F933F934F935F936F93AB
:1010A0007F938F939F93AF93BF93EF93FF93E091C1
:1010B0008220F0918320309709F01995FF91EF91EC
:1010C000BF91AF919F918F917F916F915F914F9160
:1010D0003F912F910F900BBE0F9009BE0F9008BE4D
:1010E0000F900FBE0F901F9018951F920F920FB682
:1010F0000F92112408B60F9218BE09B60F9219BEAE
:101100000BB60F921BBE2F933F934F935F936F933A
:101110007F938F939F93AF93BF93EF93FF93E09150
:101120008020F0918120309709F01995FF91EF917F
:10113000BF91AF919F918F917F916F915F914F91EF
:101140003F912F910F900BBE0F9009BE0F9008BEDC
:101150000F900FBE0F901F9018951F920F920FB611
:101160000F92112408B60F9218BE09B60F9219BE3D
:101170000BB60F921BBE2F933F934F935F936F93CA
:101180007F938F939F93AF93BF93EF93FF93E091E0
:101190007E20F0917F20309709F01995FF91EF9113
:1011A000BF91AF919F918F917F916F915F914F917F
:1011B0003F912F910F900BBE0F9009BE0F9008BE6C
:1011C0000F900FBE0F901F9018951F920F920FB6A1
:1011D0000F92112408B60F9218BE09B60F9219BECD
:1011E0000BB60F921BBE2F933F934F935F936F935A
:1011F0007F938F939F93AF93BF93EF93FF93E09170
:101200007C20F0917D20309709F01995FF91EF91A6
:10121000BF91AF919F918F917F916F915F914F910E
:101220003F912F910F900BBE0F9009BE0F9008BEFB
:101230000F900FBE0F901F9018951F920F920FB630
:101240000F92112408B60F9218BE09B60F9219BE5C
:101250000BB60F921BBE2F933F934F935F936F93E9
:101260007F938F939F93AF93BF93EF93FF93E091FF
:101270007A20F0917B20309709F01995FF91EF913A
:10128000BF91AF919F918F917F916F915F914F919E
:101290003F912F910F900BBE0F9009BE0F9008BE8B
:1012A0000F900FBE0F901F9018951F920F920FB6C0
:1012B0000F92112408B60F9218BE09B60F9219BEEC
:1012C0000BB60F921BBE2F933F934F935F936F9379
:1012D0007F938F939F93AF93BF93EF93FF93E0918F
:1012E0007820F0917920309709F01995FF91EF91CE
:1012F000BF91AF919F918F917F916F915F914F912E
:101300003F912F910F900BBE0F9009BE0F9008BE1A
:101310000F900FBE0F901F9018951F920F920FB64F
:101320000F92112408B60F9218BE09B60F9219BE7B
:101330000BB60F921BBE2F933F934F935F936F9308
:101340007F938F939F93AF93BF93EF93FF93E0911E
:101350007620F0917720309709F01995FF91EF9161
:10136000BF91AF919F918F917F916F915F914F91BD
:101370003F912F910F900BBE0F9009BE0F9008BEAA
:101380000F900FBE0F901F9018951F920F920FB6DF
:101390000F92112408B60F9218BE09B60F9219BE0B
:1013A0000BB60F921BBE2F933F934F935F936F9398
:1013B0007F938F939F93AF93BF93EF93FF93E091AE
:1013C0007420F0917520309709F01995FF91EF91F5
:1013D000BF91AF919F918F917F916F915F914F914D
:1013E0003F912F910F900BBE0F9009BE0F9008BE3A
:1013F0000F900FBE0F901F9018951F920F920FB66F
:101400000F92112408B60F9218BE09B60F9219BE9A
:101410000BB60F921BBE2F933F934F935F936F9327
:101420007F938F939F93AF93BF93EF93FF93E0913D
:101430007220F0917320309709F01995FF91EF9188
:10144000BF91AF919F918F917F916F915F914F91DC
:101450003F912F910F900BBE0F9009BE0F9008BEC9
:101460000F900FBE0F901F9018951F920F920FB6FE
:101470000F92112408B60F9218BE09B60F9219BE2A
:101480000BB60F921BBE2F933F934F935F936F93B7
:101490007F938F939F93AF93BF93EF93FF93E091CD
:1014A0007020F0917120309709F01995FF91EF911C
:1014B000BF91AF919F918F917F916F915F914F916C
:1014C0003F912F910F900BBE0F9009BE0F9008BE59
:1014D0000F900FBE0F901F9018951F920F920FB68E
:1014E0000F92112408B60F9218BE09B60F9219BEBA
:1014F0000BB60F921BBE2F933F934F935F936F9347
:101500007F938F939F93AF93BF93EF93FF93E0915C
:101510006E20F0916F20309709F01995FF91EF91AF
:10152000BF91AF919F918F917F916F915F914F91FB
:101530003F912F910F900BBE0F9009BE0F9008BEE8
:101540000F900FBE0F901F9018951F920F920FB61D
:101550000F92112408B60F9218BE09B60F9219BE49
:101560000BB60F921BBE2F933F934F935F936F93D6
:101570007F938F939F93AF93BF93EF93FF93E091EC
:101580006C20F0916D20309709F01995FF91EF9143
:10159000BF91AF919F918F917F916F915F914F918B
:1015A0003F912F910F900BBE0F9009BE0F9008BE78
:1015B0000F900FBE0F901F9018951F920F920FB6AD
:1015C0000F92112408B60F9218BE09B60F9219BED9
:1015D0000BB60F921BBE2F933F934F935F936F9366
:1015E0007F938F939F93AF93BF93EF93FF93E0917C
:1015F0006A20F0916B20309709F01995FF91EF91D7
:10160000BF91AF919F918F917F916F915F914F911A
:101610003F912F910F900BBE0F9009BE0F9008BE07
:101620000F900FBE0F901F9018951F920F920FB63C
:101630000F92112408B60F9218BE09B60F9219BE68
:101640000BB60F921BBE2F933F934F935F936F93F5
:101650007F938F939F93AF93BF93EF93FF93E0910B
:101660006820F0916920309709F01995FF91EF916A
:10167000BF91AF919F918F917F916F915F914F91AA
:101680003F912F910F900BBE0F9009BE0F9008BE97
:101690000F900FBE0F901F9018951F920F920FB6CC
:1016A0000F92112408B60F9218BE09B60F9219BEF8
:1016B0000BB60F921BBE2F933F934F935F936F9385
:1016C0007F938F939F93AF93BF93EF93FF93E0919B
:1016D0006620F0916720309709F01995FF91EF91FE
:1016E000BF91AF919F918F917F916F915F914F913A
:1016F0003F912F910F900BBE0F9009BE0F9008BE27
:101700000F900FBE0F901F901895CF93CFB7F894FE
:10171000811528E0920711F461E005C0803428E0CB
:10172000920749F462E083E090E00E94950364E050
:1017300083E090E01EC0811529E0920711F461E07A
:1017400005C0803429E0920749F462E084E090E02B
:101750000E94950364E084E090E00BC081159A40FC
:1017600091F461E085E090E00E94950364E085E0FB
:1017700090E00E9495039FB7F8948091732B8F5F40
:101780008093732B9FBFCFBFCF910895811528E021
:10179000920729F4609394207093952008958034E3
:1017A00028E0920729F46093882070938920089597
:1017B000811529E0920729F460938020709381209D
:1017C0000895803429E0920729F46093742070937F
:1017D0007520089581159A4021F460936C207093D0
:1017E0006D200895811528E0920729F460939220D6
:1017F000709393200895803428E0920729F4609331
:101800008620709387200895811529E0920729F496
:1018100060937E2070937F200895803429E09207A2
:1018200029F46093722070937320089581159A4073
:1018300021F460936A2070936B200895009709F457
:101840009BC0803C910511F460E105C0811524E046
:10185000920721F464E080E090E08CC0803821E0C1
:10186000920711F462E0F7CF811521E0920711F49D
:1018700061E0F1CF803823E0920711F461E005C008
:10188000811522E0920721F462E081E090E072C0CD
:10189000803223E0920721F464E082E090E06AC0A5
:1018A000811528E0920711F461E05BC0811529E001
:1018B000920711F461E04DC081152AE0920711F4FE
:1018C00061E056C0803428E0920711F462E049C01C
:1018D000803429E0920711F462E03BC0803928E0AF
:1018E000920711F464E03DC0803929E0920711F4B9
:1018F00064E02FC080392AE0920711F464E038C018
:10190000803C28E0920711F468E02BC0803C29E07D
:10191000920711F468E01DC0803A28E0920711F4A4
:1019200060E11FC0803A29E0920711F460E111C024
:10193000803A2AE0920711F460E11AC0803B28E067
:10194000920711F460E20DC0803B29E0920721F478
:1019500060E284E090E00EC0803824E0920721F439
:1019600060E483E090E006C0803A944029F460E4AB
:1019700085E090E00C94950308950F931F93CF9307
:10198000DF93EC01D901C801369527951795079586
:10199000401751076207730768F49A01AB01220FE1
:1019A000331F441F551FBC01CD010E942F4A2150F7
:1019B000310902C020E030E0832F8F708F832E83A7
:1019C000DF91CF911F910F910895EF92FF920F93A6
:1019D0001F93CF93DF93EC017B0130DF8C818F7EEF
:1019E0008C83F70124812250C03AF8E0DF0731F4FC
:1019F00080914E0684FD6BC011E11FC0C03B88E0A2
:101A0000D80709F464C0C03AE9E0DE0731F48091F8
:101A10006E0684FD5EC019E110C0C03BF9E0DF072F
:101A200009F457C0C03A8AE0D80739F480918E068D
:101A300084FD02C011E201C015E2E12FE695E695B2
:101A4000E69580E2E89FF0011124FA5F177081E0CB
:101A500090E001C0880F1A95EAF78183223010F0D8
:101A600020E001C020E48093B000208B85838D812D
:101A7000806C8D83F70184818D7F813019F48D8195
:101A8000826002C08D818D7F8D83F70185818823DF
:101A900019F08D81846002C08D818B7F8D83F70169
:101AA000408151816281738100E018E428EE31E0C9
:101AB000CE0163DF8C8188608C838C8180618C8314
:101AC000DF91CF911F910F91FF90EF90089515E155
:101AD000B4CF1DE1B2CF8091820080FDFCCF08958C
:101AE00090918000880F880F682F6C7392709160BE
:101AF000692B80E890E00E94A003EDCF6091800008
:101B00006C7F616080E890E00C94A003609180009D
:101B10006C73636080E890E00E94A003DCCF63E018
:101B200080E890E00E94A003D6DF6BE281E890E0BD
:101B30000E94A003D0DFA895FFCF81500C945C18C1
:101B40008F929F92AF92BF92CF92DF92EF92FF92CD
:101B50000F931F93CF93DF93CDB7DEB7C055D10955
:101B6000CDBFDEBF833008F448C1FB019081018105
:101B7000911159C0863008F440C1002309F43DC1D9
:101B80009281992309F439C1248130E090E00497CF
:101B9000281739070CF031C1602F70E061507109CE
:101BA0006B0154E0D594C7945A95E1F76F7077278D
:101BB000AE014F5F5F4F8FE0DA011D928A95E9F722
:101BC000CA018E01005F1F4F70E8F72EDC01FD9205
:101BD000CD01A017B107D1F7359690E089010150EA
:101BE0001109292F30E020173107B4F42E0F3F1FC1
:101BF000D9012C912A502F3068F4DA01A20FB11DBF
:101C00009D0181E0890F7F01E80EF11CD7018C91C5
:101C1000D9018C939E5FE5CF8C2D0E94C12E0E942E
:101C20002F3BA895EAC0913009F0E7C0E02FF0E023
:101C30009F0121503109C90160E170E00E941C4AF6
:101C400037FF02C0215F3F4F44E0359527954A9505
:101C5000E1F7AE014E5B5F4F682F822F0E94A428F0
:101C60008AE08CA323968FAD23978DA38BE08EA360
:101C700024968FAD24978FA38CE088A725968FADEF
:101C8000259789A78DE08AA726968FAD26978F5F27
:101C90008BA78EE08CA727968FAD27978DA78FE017
:101CA0008EA71FA680E188AB29968FAD29978F5FFD
:101CB00089AB81E18AAB2A968FAD2A978BAB82E103
:101CC0008CAB2B968FAD2B978DAB83E18EAB2C9687
:101CD0008FAD2C978FAB84E188AF2D968FAD2D976C
:101CE00089AF85E18AAF2E968FAD2E978BAF86E1B7
:101CF0008CAF2F968FAD2F978DAF87E18EAF60960B
:101D00008FAD60978FAF88E121968FAF2197619655
:101D10008FAD619722968FAF22978FEF800F80341F
:101D200010F0F12C02C03EE1F32E8F2D68E10E94ED
:101D3000EF49DD24D394D80EC12CEE24E39480EF38
:101D4000B82EAA24A39499E7992E24E0822E17EFA7
:101D50008F2DB8E1BF1508F488E198EEF90EB9822D
:101D60001A82AB829C828D821E820F83E886D9867E
:101D70008A871B871C871D871E871F87188B198BD7
:101D80001A8B1B8B1C8B1D8B1E8B1F8B188F198F17
:101D90001A8F1B8F1C8F1D8F1E8F1F8F18A319A3C7
:101DA0001AA31BA39AE0482F50E0475F5F4F292FEB
:101DB00030E0421753078CF0A1E0B0E0AC0FBD1F3C
:101DC000A20FB31FE4E2F0E0EC0FFD1FEC0DF11DDC
:101DD00060816C939F5FC394EACFBE016F5F7F4FBA
:101DE000855F0E9424398091CB389091CC385AD2AB
:101DF000A895E394DE1408F0ABCFC05BDF4FCDBFF6
:101E0000DEBFDF91CF911F910F91FF90EF90DF9098
:101E1000CF90BF90AF909F908F900895DC0190E09D
:101E200050E041505109292F30E024173507F4F4D0
:101E300081E0890FFB01E20FF31F20812A3048F473
:101E4000FB01E80FF11D8081FD01E20FF11D808390
:101E50000BC02F3148F0FB01E80FF11D8081FD011F
:101E6000E20FF11D759780839E5FDDCF0895CF93BC
:101E7000DF93CDB7DEB76F97CDBFDEBFF8940E947A
:101E8000CD26FC01789480EF89831A8281E08B83D0
:101E900099E79C8322E02D838E831F829091572F98
:101EA0009F5F9887898784858A872B8780818C8725
:101EB00083E08D8782818E8784E08F878481888B01
:101EC00085E0898B86818A8B86E08B8B80858C8BE5
:101ED00087E08D8B82858E8B88E08F8B8091562F4B
:101EE000888F89E0898F80914F2F8A8F8FE18B8F28
:101EF0008091802B8C8F80E28D8F8091552F8E8FDB
:101F000087EF8F8FBE016F5F7F4F8FE10E94243973
:101F10006F96CDBFDEBFDF91CF910895882329F062
:101F2000FB018081811101C0A2CF0895CF93DF937F
:101F3000CDB7DEB72D97CDBFDEBFF89481E090E03E
:101F40000E943C058093572F83E090E00E943C055F
:101F500091E0811101C090E09D8784E090E00E94B3
:101F60003C0590E089839A8385E090E00E943C05DF
:101F700090E08B839C8386E090E00E943C0590E09B
:101F80008D839E8387E090E00E943C0590E08F83E4
:101F9000988788E090E00E943C0590E089879A87C6
:101FA00089E090E00E943C0590E08B879C878AE066
:101FB00090E00E943C058093562F8BE090E00E94B9
:101FC0003C0580934F2F8CE090E00E943C0580936D
:101FD000802B8DE090E00E943C058093552FCE0130
:101FE00001960E94A22678942D96CDBFDEBFDF9188
:101FF000CF910895FF920F931F93CF93DF93CDB7A7
:10200000DEB72C97CDBFDEBFF82E8B0177DDCE017A
:1020100001962CE0FC0111922A95E9F74F2DB801A9
:10202000FDDE6981615081E090E00E9491056A8146
:1020300083E090E00E9491056B8184E090E00E9433
:1020400091056C8185E090E00E9491056D8186E0AC
:1020500090E00E9491056E8187E090E00E949105DA
:102060006F8188E090E00E949105688589E090E0AA
:102070000E94910569858AE090E00E9491056A8539
:102080008BE090E00E9491056B858CE090E00E94CF
:1020900091056C858DE090E00E94910560E07FEFF6
:1020A00080E090E00E940E4041DF0E94FD28DFDECC
:1020B0000E949F342C96CDBFDEBFDF91CF911F9140
:1020C0000F91FF900895F89467E080E090E00E94FF
:1020D000910563E081E090E00E94910561E083E07A
:1020E00090E00E94910560E084E090E00E949105FC
:1020F00067E085E090E00E94910560E086E090E076
:102100000E94910560E087E090E00E94910566E002
:1021100088E090E00E94910560E089E090E00E94F4
:1021200091056FE38AE090E00E9491056FE78BE0F4
:1021300090E00E9491056FE78CE090E00E9491058D
:102140006FE78DE090E00E94910578940C948729C8
:10215000882369F1FB018081813019F0823069F0B8
:102160000895CCDCC8D52FEF8FE493EC215080404C
:102170009040E1F700C000003CC0C0DCA4DF87E075
:102180008093A2006FEF7FEF80E090E00E940E400E
:10219000B2D52FEF8FE493EC215080409040E1F7CF
:1021A00000C0000081E090E09BDCB0DCFFCF089530
:1021B0006AEF7FE081E00E943C256EE87FE082E0EC
:1021C0000E943C2568EA70E183E00E943C2560EAB9
:1021D0007DE084E00E943C256DE97DE085E00E9481
:1021E0003C2580E090E00E943C05873009F06BCFF1
:1021F000089581D5F89480E02FEF3FE891E02150D9
:1022000030409040E1F700C000008F5F8038A1F7B8
:102210008AEC9CEAA2E4BCED80931A3990931B39B6
:10222000A0931C39B0931D397ACCCF93DF93EC0186
:102230001B8682E08C83898761E0CE01019693D46E
:10224000882331F061E0CE010696DF91CF918BC4F7
:1022500080E0DF91CF910895CF93DF932091882F75
:102260002430D1F4EB01FC0181818CD340E050E0BB
:1022700064E070E0CE01AED1811111C08091912F48
:102280009091922FFC01EF5BFF4F2081319780816D
:10229000281720F02FD302C082E001C080E0DF9138
:1022A000CF9108952091882F2430E9F4FC01818199
:1022B00069D38091952F2091912F3091922FF90120
:1022C00087FF05C0EF5BFF4F808190E008C0E05CB6
:1022D000FF4F80813196208190E0821B9109892BEC
:1022E00021F008D3C9C482E0089580E00895CF9317
:1022F000DF932091882F243051F4EC01898142D35F
:1023000076D3882321F0CE01DF91CF91CBCFDF911F
:10231000CF9108950F931F93CF932091882F24304E
:1023200011F0C0E027C08B01FC0186812BD36BD359
:10233000C82F8823B1F38091912F9091922FFC01A7
:10234000EF5BFF4F208131978081281750F740E0E5
:1023500050E064E070E0C8018AD18091912F9091A3
:10236000922FFC01EF5BFF4F20813197808128176E
:1023700008F0D9D28C2FCF911F910F9108950F9310
:102380001F93CF93DF93CDB7DEB7EA97CDBFDEBF04
:1023900009E81FE2D7D2F80181938F01FFE20139EA
:1023A0001F07C1F70E94D04548D3882309F4F3C022
:1023B0009091892F20918A2F422F50E04A30510569
:1023C00008F0E9C0FA018827E250FF4F8F4F0C94C4
:1023D0006D4A903891F0923809F0DDC080918D2FD0
:1023E0008F70D0D2E091932FF091942F118112FB36
:1023F000112710F980E0C6D206C01091852F809178
:10240000862F8111126033D3812FACD280E0A1C01E
:10241000892F8D7F09F0BFC0992319F0923061F0A8
:10242000BAC080918B2F813009F0B5C0233009F0FC
:1024300080E08093862F27C080918B2F811123C04D
:10244000E0918D2F1E2F1F7009F4A5C0812F9AD205
:1024500080918A2F833011F436D315C0E091932FE9
:10246000F091942F81818B7F818324E8129FF0016A
:102470001124E952F04D1082E091932FF091942FA6
:1024800080818E7F808380E07DD2F1D264C0911103
:1024900082C010918B2F1F77EAD2D8D3A8D288237D
:1024A000E9F31093C304111102C082E001C083E07C
:1024B0008093882F70C09058923008F06CC0809143
:1024C0008B2F90918C2F8C3DE3E09E0761F583E08C
:1024D0008A838AE389834FB7F894DE01139620E05C
:1024E00038E052E05093CA01E32FF0E0E4911092FB
:1024F000CA0120FF03C0E295EF703F5FEF708E2F9F
:1025000090E0EA3010F0C79601C0C0968D939D937D
:102510002F5F2C3139F74FBFAAD26AE370E0CE01AA
:102520000196F2D00FC0AE014F5F5F4F60918D2FCB
:102530000E94183A8C01892B71F199D2B8018981D6
:102540009A815CD1F0D127C0903829F590D2809142
:10255000842F08D2CFD17AD31EC091111CC0809194
:102560008B2F90918C2F99270297ACF480D2809179
:102570008B2F8093842F6AD38091842F811106C082
:102580008091C304811102C081E001C084E0809386
:10259000882F0E94B64551D2882311F068D293D279
:1025A000EA96CDBFDEBFDF91CF911F910F910895C5
:1025B0000895CF938091882F882351F0C091952F53
:1025C00080E0E0D13AD28111DADE8C2FCF91DAC1EE
:1025D000CF910895CF92DF92EF92FF920F931F93C6
:1025E000CF93DF93EC018B017A0146D3811136C082
:1025F000E114F10439F0F70180819181081B190B76
:10260000C80FD91FC12CD12C0115110531F18091B2
:10261000912F9091922FFC01EF5BFF4F208131971A
:102620008081281790F066D1C4DFE114F10449F0ED
:10263000F70180819181C80ED91EC082D18285E0C8
:102640000DC01AD3882301F309C089918BD10150A1
:102650001109FFEFCF1ADF0AD7CF80E0DF91CF91CA
:102660001F910F91FF90EF90DF90CF900895CF9240
:10267000DF92EF92FF920F931F93CF93DF93EC01C2
:102680008B017A01F9D2811136C0E114F10439F0DD
:10269000F70180819181081B190BC80FD91FC12C2C
:1026A000D12C0115110531F18091912F9091922F2C
:1026B000FC01EF5BFF4F208131978081281790F05C
:1026C00032D177DFE114F10449F0F7018081918183
:1026D000C80ED91EC082D18285E00DC0CDD288231C
:1026E00001F309C02FD1899301501109FFEFCF1ACF
:1026F000DF0AD7CF80E0DF91CF911F910F91FF903C
:10270000EF90DF90CF900895DF92EF92FF920F93BA
:102710001F93CF93DF93D82FC92F8B018091952FD3
:10272000806830D180918F2F9091902F80179107E2
:1027300028F00115110519F4DDD001C08C01ED2E32
:10274000FC2ED12C0115110509F43FC08091882F72
:10275000811102C082E04AC0853011F483E046C096
:102760006CD1811142C04FD181113AC040D1882330
:1027700049F32091952F8091912F9091922FFC01F8
:1027800027FF05C0EF5BFF4FC081D0E013C0E05CC6
:10279000FF4FC08131968081D0E0C81BD1090AC0AB
:1027A000C034D10550F4F70181917F01DBD0015095
:1027B000110921960115110599F7DD24D394C03430
:1027C000D10509F0D12C96D0BDCFD110BFCF08C014
:1027D0008091882F882309F4BDCF853009F4BECFBE
:1027E00012D18823A9F380E001C081E0DF91CF916D
:1027F0001F910F91FF90EF90DF900895DF92EF927D
:10280000FF920F931F93CF93DF93D82FC92F8B0184
:102810008091952F8068B6D080918F2F9091902FC6
:102820008017910728F00115110519F463D001C034
:102830008C01ED2EFC2ED12C0115110509F441C09F
:102840008091882F811102C082E04CC0853011F444
:1028500083E048C0F2D0811144C0D5D081113CC082
:10286000C6D0882349F32091952F8091912F909184
:10287000922FFC0127FF05C0EF5BFF4FC081D0E026
:1028800015C0E05CFF4FC08131968081D0E0C81B4D
:10289000D1090CC0C034D10560F4F701849162D035
:1028A000FFEFEF1AFF0A01501109219601151105DA
:1028B00089F7DD24D394C034D10509F0D12C1AD086
:1028C000BBCFD110BDCF08C08091882F882309F4D9
:1028D000BBCF853009F4BCCF96D08823A9F380E024
:1028E00001C081E0DF91CF911F910F91FF90EF9098
:1028F000DF900895E091932FF091942FA091912F64
:10290000B091922FAF5BBF4F8C9190E08283938305
:1029100080818D798083E091912FF091922FEF5BF0
:10292000FF4F10820895E091932FF091942F8081B2
:102930008D798083E091912FF091922FEF5BFF4F83
:10294000108208958091912F9091922FFC01EF5B5E
:10295000FF4F208131E0320F3083FC01E20FF11D87
:10296000808108952091912F3091922FF901EF5B92
:10297000FF4F908141E0490F4083F901E90FF11DBC
:10298000808308958093952F482F4F7050E0609179
:10299000C6047091C7049A0194E0220F331F9A95E0
:1029A000E1F7E4E887FF11C0E49FC001E59F900DC7
:1029B00011248852904D8093912F9093922FC901AA
:1029C00008969B01280F391F0DC0E49FC001E59FA9
:1029D000900D11248A56904D8093912F9093922FB1
:1029E000260F371F2093932F3093942F08958091B3
:1029F000952F8068C7DFE091932FF091942F80810D
:102A00008695817008958091952F8F77BBDFA09177
:102A1000932FB091942F8C9185FF0DC0E091912F51
:102A2000F091922F12968D919C911397E05CFF4F3D
:102A3000808381E0089580E008958091952F8F77BD
:102A4000A1DFA091932FB091942F8C9184FF0DC0A2
:102A5000E091912FF091922F12968D919C91139766
:102A6000E05CFF4F808381E0089580E008958091CD
:102A7000952F8F7787DFE091932FF091942F8081AE
:102A80008D788083E091932FF091942F80818160E5
:102A90008083E091912FF091922FEF5BFF4F108296
:102AA0008091952F80686EDFE091932FF091942FA5
:102AB000808181608083E091912FF091922FEF5B74
:102AC000FF4F10820895E091932FF091942F818110
:102AD00084608183E091932FF091942F8181807C99
:102AE000803459F48091952F80584CDFE091932FDA
:102AF000F091942F81818460818308951F93CF93F7
:102B0000DF93C82F162FD42F3DDFE091932FF09144
:102B1000942F1182E091932FF091942F8C2F881F86
:102B20008827881F880F8083E091932FF091942F3E
:102B30001183E091932FF091942F128213822091B0
:102B4000912F3091922F24833583CC0FCC0BCD2342
:102B5000F901E05CFF4FC0833196108281E0DF9184
:102B6000CF911F910895CF92DF92EF92FF920F9332
:102B70001F93CF93DF93C62E8C01D12CDC1409F464
:102B80003FC0F801D081D11104C0D3940B5F1F4F17
:102B9000F5CFF801E180F28093818481823010F4D6
:102BA00088E001C088E128E030E0C0E02E153F0554
:102BB00020F4CF5F220F331FF9CFC82B8D2F8F70DA
:102BC000833010F080E01DC0CF7EF1E4EF16F104F9
:102BD000C8F7992321F0913021F4C06C0AC0C06479
:102BE00003C0C068911105C04E2D6C2F80E88D0F79
:102BF00085DF4E2D6C2F8D2F81DF8111C6CFE2CF67
:102C000081E0DF91CF911F910F91FF90EF90DF90C6
:102C1000CF90089580E090E0E091C604F091C70461
:102C20009C0144E0220F331F4A95E1F7E20FF31FA6
:102C300011864091C6045091C704FA01E20FF31FB8
:102C4000118201968330910539F708958091892F7B
:102C500087FF0DC0D8DE811105C08091882F8111BA
:102C6000F9CF09C060CE8091882F882321F0BFDE84
:102C70008823C9F33FCE08950F931F93CF93E0911C
:102C8000C604F091C70400A911A9C4E68091952F4C
:102C900087FF0AC0ACDE811105C08091882F8111A9
:102CA00005C020C080E023C0AEDEF5CF8530E1F066
:102CB000E091932FF091942F818182FD17C0E091D4
:102CC000C604F091C70480A991A90817190711F447
:102CD0008C01DCCF2FEF2C0FCC2311F0C22FF8CFBB
:102CE00084E005C082E003C083E001C081E0CF91B1
:102CF0001F910F91089563D069D0E0ECF4E08181D9
:102D00008E7F818380818F7780831092872F0895B3
:102D1000CF93DF93E0E4F0E01482848183608483C6
:102D20004ED054D0C0ECD4E088818F7788838881DE
:102D3000806888831092882F1092842F1092862F9B
:102D40001092852F88818064888340E46BE480E85A
:102D5000D5DE40E46BE480E0D1DE8885806488873E
:102D6000898181608983DF91CF910895CF93DF932B
:102D70002FB7F894C0ECD1E082E08A87EAE1F0E076
:102D8000E491A0ECB4E0DA96EC93DA97EBE1F0E0B2
:102D9000E491DB96EC93DB971A8683E291E38E7FD6
:102DA00016968D939C93179782E18C9381E01896E9
:102DB0008C932FBF8093872FDF91CF91A9CFE0EC29
:102DC000F4E080858370808711860895E0ECF4E05C
:102DD0008FEF8287848708951F920F920FB60F920C
:102DE000112408B60F9218BE09B60F9219BE0BB681
:102DF0000F921BBE2F933F934F935F936F937F93DD
:102E00008F939F93AF93BF93EF93FF938091CA04E7
:102E100086FF07C080E48093CA0485E08093882FF2
:102E2000C7DB8091CA0485FF13C080E28093CA0487
:102E30008091842F882311F084E007C08091C3041F
:102E4000811102C081E001C083E08093882FB0DB54
:102E50008091CA0484FF14C080E18093CA0482E098
:102E60008093882F1092842F1092C304D3DE40E405
:102E70006BE480E843DE40E46BE480E03FDE98DB17
:102E8000FF91EF91BF91AF919F918F917F916F9142
:102E90005F914F913F912F910F900BBE0F9009BE04
:102EA0000F9008BE0F900FBE0F901F901895809145
:102EB0009A20089590919A20981721F080939A2053
:102EC00081E0089580E0089590E0FC01EE0FFF1F7F
:102ED0008E0F9F1FFC01EB56FE4C10821182128256
:102EE0000895FC018081843070F48181823058F42F
:102EF0008281082E000C990B80959095892F881F50
:102F00008827881F089580E0089590E0FC01EE0F67
:102F1000FF1F8E0F9F1FFC01EB5AFE4C1082118287
:102F200012820895FC01808187FD0EC0818187FD9A
:102F30000BC08281082E000C990B80959095892FEB
:102F4000881F8827881F089580E008951F93CF93D6
:102F5000DF9300D01F92CDB7DEB7FB01843008F1BC
:102F6000208131819281838129833A839B838C8361
:102F7000122F2031B0F4CE010296B3DF882391F0F6
:102F8000212F30E0F901EE0FFF1F2E0F3F1FF90137
:102F9000EB56FE4C2A813B814C8120833183428356
:102FA00001C080E02496CDBFDEBFDF91CF911F919D
:102FB00008951F93CF93DF9300D01F92CDB7DEB754
:102FC000FB01843008F12081318192818381298342
:102FD0003A839B838C83122F2031B0F4CE0102966A
:102FE000A1DF882391F0212F30E0F901EE0FFF1FC0
:102FF0002E0F3F1FF901EB5AFE4C2A813B814C8179
:1030000020833183428301C080E02496CDBFDEBFA0
:10301000DF91CF911F910895CF93C0E08C2F54DFA3
:103020008C2F73DFCF5FC031C9F7CF910895813006
:1030300071F4FB018081823050F481703BDF882382
:1030400031F080919A208111E7DF0C949F3408952C
:103050000F931F93CF9390919A20992349F18B015D
:10306000CBEFC80F0B5F1F4FCB3FE9F0F80135974F
:103070008081882319F0813051F01AC0B801645062
:10308000710984E08C0F62DF811109C011C0B801A1
:103090006450710984E08C0F8CDF882349F0C5509F
:1030A0000B5F1F4FE1CFCF911F910F910C949F3475
:1030B000CF911F910F910895882379F0FB019081A2
:1030C000992319F0913029F008956F5F7F4F815057
:1030D000AECF6F5F7F4F8150BBCF0895982F809107
:1030E0009A20882371F0913011F4662311F080E06A
:1030F000089547FDFCCFE42FF0E0EB57FE4C208312
:1031000008950895AF92BF92CF92DF92EF920F93FE
:103110001F93CF93DF93D0919A20DD2309F44BC006
:10312000C82ED12C5601AA0CBB1CF501EC0DFD1DBF
:10313000EB56FE4C208130E041E09181911101C0BD
:1031400040E0C82FD601AB57BE4C8FE7E82E028176
:103150006C918C2F0E94AD3CF501EC0DFD1DEB5ADE
:10316000FE4C408150E060E070E091E1440F551F5B
:10317000661F771F9A95D1F7818190E0A0E0B0E0BB
:1031800029E0880F991FAA1FBB1F2A95D1F7482B4A
:10319000592B6A2B7B2B028110E020E030E0000FDE
:1031A000111F221F331F402B512B622B732B20E04A
:1031B0008C2F0E94393D8D2FDF91CF911F910F9160
:1031C000EF90DF90CF90BF90AF900895CF93C091D4
:1031D0009A20CC2331F0462F682F405C80E00E947B
:1031E00003398C2FCF910895CF93C0919A20CC238F
:1031F00049F0611102C040E001C04FE7682F81E053
:103200000E9403398C2FCF910895CF93C0919A20BB
:10321000CC2349F0611102C040E001C04FE7682FA4
:1032200082E00E9403398C2FCF91089581E00895A8
:103230008091C731882349F00E949538BC0176956A
:10324000679585E399E10C94D0430E949538BC01C1
:10325000660F771F860F971FBC0176956795769549
:10326000679585E399E10C94D0432F923F924F925A
:103270005F926F927F928F929F92AF92BF92CF9206
:10328000DF92EF92FF920F931F93CF93DF93809182
:10329000C5319091C631029709F0ACC060909C2076
:1032A0008FEF860D8F3F09F48FE0482E512C2AECCA
:1032B000A22E21E3B22E0DE11FE231E8E32E3BE224
:1032C000F32E40E5C42E4FE2D42E54E2252E712C6D
:1032D0006FE7862E912C960120553F42F6013190E2
:1032E0006F01330C330C320CF50181915F0199E0D1
:1032F000980F9331B0F01816A4F46AE00E94FB49CD
:1033000084300CF083E0E82FF0E0E25CFF4D809128
:103310009C2060810E94EF4991111BC0CFE7D0E053
:103320001AC0F70180819CE0929FF001939FF00DFD
:103330001124E80FF11D94E0EE0FFF1F9A95E1F7BD
:10334000E35FF34DE60DF71DC081CC2311F0D0E013
:1033500002C0C0E0D0E0F70181917F019CE0929F24
:10336000F001939FF00D1124E80FF11D84E0EE0FA2
:10337000FF1F8A95E1F7E35FF34DE40DF51D8081B2
:10338000882331F02FE740E0632D87E00E94DB388F
:103390002097B9F0F80126812C9FC0012D9F900D38
:1033A0001124B4010E94084AC62F262F41E0632D44
:1033B00087E00E94DB384C2F66EE620D87E00E94AA
:1033C00003392394085F1F4FF8E22F1284CF8091B6
:1033D000CB389091CC380E94521180919C208F5F05
:1033E000803119F080939C2005C010929C2081E0D0
:1033F00080939B20DF91CF911F910F91FF90EF90D1
:10340000DF90CF90BF90AF909F908F907F906F9004
:103410005F904F903F902F900895BF92CF92DF9290
:10342000EF92FF920F931F93CF93DF9360E57FE2BC
:10343000C1E8DBE2ADE1BFE240E050E08FE3C82E3F
:103440009FE7D92EFB011192BF0180E090E020E0C0
:1034500030E08C01040F151FFC01E20FF31FEE5E3C
:10346000FA4FB4907801E20EF31EF701E35FF34DDB
:10347000B0822F5F3F4F2031310571F74096803C7D
:10348000910529F7199215961C9215971796CC92CB
:10349000179714961C9214971696DC92169711960D
:1034A0001C921197189640545F4F4115F3E05F0747
:1034B00049F61092632F80E2EDEDFBE2DF011D92F1
:1034C0008A95E9F780E1EFE3FFE2DF011D928A953B
:1034D000E9F784E0EDEFFBE2DF011D928A95E9F761
:1034E000B2D4ADEDBBE2EFE3FFE284E06CE978E15A
:1034F0003FE34CE951E32FE71D921C921197108294
:1035000058966D937C935997348750964D935C935E
:1035100051979FE720878150129631968111ECCF09
:103520009093C8311092A3209093A4201092C93197
:1035300010923D2F10923E2F8AE58093542F1092C7
:10354000C7311092C5311092C631DF91CF911F91D2
:103550000F91FF90EF90DF90CF90BF9008958091F2
:10356000C5319091C631892B59F481E090E0809368
:10357000C5319093C6314FE76EE087E00C94033974
:103580001092C5311092C63110929C2040E06EE03E
:1035900087E00C94033910929C200895CF932091DA
:1035A000C5313091C6312130310551F4811129C026
:1035B00082E090E08093C5319093C631CF9155CE93
:1035C00022303105F1F4C82F0E949E38882389F0FB
:1035D0008C2FCC0F990B029666E070E00E941C4A7B
:1035E000892B79F461E070E088E199E1CF910C9446
:1035F000D0438C2F66E00E94FB49911102C0CF910D
:1036000034CECF91089590E0FC01EF57F44D208126
:103610003CE0389FF001399FF00D1124E20FF11DBD
:1036200084E0EE0FFF1F8A95E1F7E35FF34DE60FAD
:10363000F11D8081089590E0FC01EF57F44D208149
:103640003CE0389FF001399FF00D1124E20FF11D8D
:1036500084E0EE0FFF1F8A95E1F7E35FF34DE60F7D
:10366000F11D40830895E82FF0E0E05BF04D6083AA
:103670000895E82FF0E0E05BF04D808108954FE77A
:103680006FE087E00E94033940E06FE087E00C9430
:1036900003399CEE980F9430B8F498E0899FF001BC
:1036A0001124E358F14D81E0611180E08483809121
:1036B0003D2F90913E2F019709F083C00E949826DC
:1036C000049709F07EC097C098EE980F943098F454
:1036D00098E0899FF0011124E35AF14D81E06111D6
:1036E00001C080E0858380913D2F90913E2F01970E
:1036F00009F067C0E3CF9AE9980F9031C0F590E0E8
:10370000865691099C012370332795958795959549
:10371000879553E0220F331F5A95E1F7F901E35ED5
:10372000F04D82309105B9F083309105D1F00197C9
:1037300031F081E0611101C080E08083089581E073
:10374000611101C080E0818380913D2F90913E2FD7
:103750000197B9F5B3CF81E0611101C080E08283A8
:10376000089581E0611101C080E0838308958F3066
:1037700079F480910220882321F181E08093C73180
:1037800084E090E00E949D26A7D11092022077CF7E
:103790008E30B9F4662369F08091C5319091C631BD
:1037A000892B79F481E090E08093C5319093C63104
:1037B00008951092C5311092C63110929C2010923B
:1037C0009B2008958430A0F09CEF980F943050F027
:1037D00098EF980F943048F08C50843048F483E090
:1037E00090E0089581E090E0089582E090E00895EF
:1037F00080E090E008952F923F924F925F926F92F7
:103800007F928F929F92BF92CF92DF92EF92FF9220
:103810000F931F93CF93DF9300D01F92CDB7DEB7E6
:10382000E091802BF0E0EE5EFC4FE491E091552FAB
:10383000F0E0EE5EFC4FE4918DE19FE28B839C8390
:103840009DEDC92E9BE2D92E21E8422E2BE2522E6D
:1038500049825A8238E0B32E4CE0242E312C812C40
:1038600050E8952E66EF662E64E0762EEB81FC81A3
:10387000848181110DC0E091802BF0E0EE5EFC4F61
:10388000F490E091552FF0E0EE5EFC4F149103C0F0
:103890008AE0F82E1AE0EB81FC818181882331F0E7
:1038A0004F2D68E7832D0E94ED3D04C060E0832D1D
:1038B0000E94003E832DDDDEB40102C0769567953F
:1038C0008A95E2F7412F832D0E94CB3D832DD1DED7
:1038D000F82FF69DC001F79D900D1124F60180830D
:1038E0009183F201B401019002C0769567950A9424
:1038F000E2F72F01412F84E0830D0E94CB3DE98147
:10390000FA812191E983FA83269DC001279D900DBC
:103910001124F60180879187EB81FC8184818111DC
:1039200006C04F2D61E08B2D0E94ED3D04C060E08C
:103930008B2D0E94003EE12E00E021E030E040E0CF
:10394000EB81FC8166818B2D0E94AD3CEB81FC817B
:103950008681F4E68F9FC0011124F601808B918B44
:10396000EB81FC818581882331F04F2D6FE0822D22
:103970000E94ED3D04C060E0822D0E94003EE12ED9
:103980000EE721E030E041E0EB81FC816781822D90
:103990000E94AD3CEB81FC818781F4E68F9FC001E2
:1039A0001124F601808F918F33948B819C8108962E
:1039B0008B839C83239492E0C90ED11CB394E4E0E2
:1039C0003E1254CF2496CDBFDEBFDF91CF911F9121
:1039D0000F91FF90EF90DF90CF90BF909F908F90CE
:1039E0007F906F905F904F903F902F9008958F92AF
:1039F0009F92AF92BF92CF92DF92EF92FF920F937E
:103A0000CF9349D24C019DEDC92E9BE2D92EC0E047
:103A1000EE24E394F12C3CE9A32E31E3B32EC40150
:103A20008E219F21892B29F06EE38C2F0E94003E6E
:103A300004C060E08C2F0E94003E00E021E030E0F6
:103A400040E060E08C2F0E942D3DF601A192B192E2
:103A50006F01EE0CFF1CCF5FC03109F7CF910F91C2
:103A6000FF90EF90DF90CF90BF90AF909F908F909E
:103A70000895EF92FF920F93CF93DF938DEDE82E91
:103A80008BE2F82EC0E06C2F8091632FBCDDD82F25
:103A9000882329F06AE08C2F0E94003E04C060E079
:103AA0008C2F0E94003E00E021E030E040E06D2FCE
:103AB0008C2F0E942D3D24E6D29FC0011124F701D6
:103AC000819391937F01CF5FC031E9F6DF91CF9170
:103AD0000F91FF90EF90089580913D2F90913E2F90
:103AE0008230910531F08330910521F0019719F46E
:103AF00082CE7DCFBECF0895DF92EF92FF920F93DB
:103B00001F93CF93DF93182FC82FD0E0FE01E15C05
:103B1000F04DD080E091802BF0E0EE5EFC4FF49011
:103B2000E091552FF0E0EE5EFC4F04914BDE8130CA
:103B3000910539F140F08230910509F48CC003976A
:103B400009F4A0C0B5C053E0CC0FDD1F5A95E1F7D2
:103B5000C35ED04D8C8181110AE0812F8ADD60E047
:103B600070E802C0769567958A95E2F7402F812F1D
:103B7000DF91CF911F910F91FF90EF90DF900C9408
:103B8000CB3D9E0124503109E90143E0CC0FDD1FFC
:103B90004A95E1F7FE01E35EF04D848181110AE070
:103BA000F901E653FE4C8081882381F06AE00E948F
:103BB000FB49A82FB0E0AA0FBB1FAE5BBF4D6D91B4
:103BC0007C91402F812F0E94CB3D0FC0F901EF5710
:103BD000F44D60E070E8008002C0769567950A9425
:103BE000E2F7402F812F0E94CB3D00919C200023C3
:103BF00011F0015001C00FE0602F8CEF810F03DD49
:103C00008823F1F0C35ED04D8C81882311F02AE027
:103C1000F22E0E949E384F2D882381F0011102C0A0
:103C20006DE302C06091542F812FDF91CF911F91DE
:103C30000F91FF90EF90DF900C94ED3D60E5F4CF95
:103C400060E0812FDF91CF911F910F91FF90EF9056
:103C5000DF900C94003E93E0CC0FDD1F9A95E1F7C6
:103C6000C352D14D8C81882311F08AE001C08FE7C7
:103C7000E82E00E022E030E040E06D2D812F0E9430
:103C8000AD3C16C083E0CC0FDD1F8A95E1F7C3542D
:103C9000D14D8C81882311F08AE001C08FE7E82E96
:103CA0000EE722E030E041E06D2D812F0E94AD3C17
:103CB000DF91CF911F910F91FF90EF90DF900895CA
:103CC000CF93DF93D82FC0919C20CC2311F0C1500B
:103CD00001C0CFE08091C5319091C631029761F566
:103CE000CD1318C06091542F8C2F0E94003ECC231E
:103CF00011F0C15001C0CFE06C2F8091632F83DCA5
:103D0000811102C060E001C06AE08C2FDF91CF9189
:103D10000C94003E6D2F8091632F75DC882331F069
:103D20006AE08D2FDF91CF910C94003E60E08D2FE3
:103D3000DF91CF910C94003ED111ECCF6091542FC4
:103D400080E00E94003ECFE0D7CF40919C20909130
:103D50009D204917B1F130910320303190F538138F
:103D600030C08091C8316AE10E94EF49E4E0F0E0A0
:103D7000E81BF109E75CFF4D2081842F622F0E9430
:103D8000EF49492F9C30C8F4215080E090E8BC01F5
:103D900002C0769567952A95E2F780E090E8AFEF4C
:103DA000BFEF04C0B695A795979587954A95D2F72A
:103DB000682B792B832F0E94E63D80919C20809375
:103DC0009D2008950F9380919F2090E020913D2F9A
:103DD00030913E2F8217930709F07EDE80913D2FB0
:103DE00090913E2F80939F2081309105C9F048F03B
:103DF00082309105C9F00397D1F480919E2060DF55
:103E000016C000E020E030E040E060E080919E20BD
:103E10000E942D3D60E580919E200E94003E07C0DB
:103E200080919E2069DE03C080919E208EDF80916C
:103E30009E208F5F803118F480939E2002C01092E4
:103E40009E200F9108950F931F93CF93DF931092AD
:103E5000A1201092A22001E010E0CDE0D4E0CE013C
:103E60000E943C05853A51F48091A1209091A220B6
:103E7000802B912B8093A1209093A220000F111FE3
:103E8000C05CDF4FCD3088E0D80749F7DF91CF9194
:103E90001F910F9108958091A1209091A2200895E3
:103EA000F89421E030E0082E02C0220F331F0A945C
:103EB000E2F7209530954091A1205091A220242333
:103EC00035232093A1203093A22020E4829FC001BB
:103ED00011246FEF835F9B4F0E94910578940895A2
:103EE0006F927F928F929F92AF92BF92CF92DF920A
:103EF000EF92FF920F931F93CF93DF93CDB7DEB76F
:103F0000A097CDBFDEBFC82E0E947E0D8E010F5F31
:103F10001F4F80E2D8011D928A95E9F7DC2CDD0C59
:103F20002FE1622E6D0CE12C48015401F12C6F2D14
:103F30008E2D69DB782E61E06F0D8E2D64DB76941B
:103F400076947694729490EF7922869586958695EC
:103F50008F708729F50181935F01F394F394F0E169
:103F6000FF12E5CF88E0880E911CE394A4E0EA12EA
:103F7000DCCFC8010E94B305862D0E94C5057801DB
:103F80004801B12C8B2D75DBF40181934F01B39463
:103F9000F4E0BF12F7CF6DE17FE29E01275F3F4F54
:103FA000FB0185818795882787959781892BD70184
:103FB00014968C931497848187958827879596818A
:103FC000892B15968C933896B2E0EB0EF11CE21615
:103FD000F30639F74DE35FE291E080E0FB012181D8
:103FE000222311F0292F01C020E0822B990F685F56
:103FF0007F4F4617570791F78F708D8785EA8E8719
:1040000081E090E002C0880F991FCA94E2F72091E6
:10401000A1203091A220822B932B8093A1209093FA
:10402000A220C8010E94B30580E28D0D0E94C50543
:104030000E94860DA096CDBFDEBFDF91CF911F916C
:104040000F91FF90EF90DF90CF90BF90AF909F9037
:104050008F907F906F9008959F92AF92BF92CF9272
:10406000DF92EF92FF920F931F93CF93DF9320E4A1
:10407000829FC0011124EC01C052DC4F91E8A92EAF
:104080009BE2B92E6E0100E0F50111925F01C601BD
:10409000912C7C01FFEFEF1AFF0A0E943C05182FBC
:1040A000482F42954F70440F440F440F692D802FC5
:1040B000C2DA412F4F70440F440F440F61E0690D85
:1040C000802FB9DA93949394C70120E19212E1CF43
:1040D00088E0C80ED11C0F5F0430B1F6CE01809687
:1040E00010E07C01EFEFEE1AFE0A0E943C05682FFB
:1040F000812FB9DA1F5FC701143099F76E01F4E21E
:10410000CF0ED11C0DE11FE284E1F82EC6010E9402
:104110003C058F77F80187835601FFEFAF1ABF0A7E
:10412000C6010E943C05881F8827881FF8019581D9
:10413000891731F04FE764E06F0D87E00E94033983
:10414000C5010E943C058F77F8018683F2E0CF0E0F
:10415000D11CC5010E943C05881F8827881FF801D3
:104160009481891729F04FE76F2D87E00E9403396A
:10417000085F1F4FF394F8E1FF12C8CFCE018C9671
:104180000E943C05082FCAE6D1E01FE741E0802FDE
:104190008D2309F440E0419F402D11246C2F87E0CE
:1041A0000E940339DD0FCF5FCE3681F7DF91CF91CB
:1041B0001F910F91FF90EF90DF90CF90BF90AF9045
:1041C0009F900895EF92FF920F931F93CF93C82F64
:1041D000162F80913D2F90913E2F8230910509F44A
:1041E00074C08330910509F4B9C0019709F0E8C0A3
:1041F0008C2FE8DA8130910529F140F08230910569
:1042000009F43CC0039709F449C0DAC0112309F44A
:10421000D7C028E0C29FF0011124E35EF04D418138
:1042200081E0482741838FE7489F402D11246AE6AB
:104230006C0F87E00E940339CF911F910F91FF907F
:10424000EF90D9CA1111BCC0EC2FF0E0EE0FFF1FA8
:10425000EA53FE4C80819181803D974050F4C450D8
:10426000C093632F83E090E080933D2F90933E2F87
:10427000A7C0C1DA8FE78093C831A2C0112309F427
:104280009FC088E0C89FF0011124E352F14D848162
:10429000882381F06CE06C0F4FE70FC0112309F405
:1042A0008FC028E0C29FF0011124E354F14D8581B5
:1042B000882381F36CE06C0F4FE387E0CF911F916F
:1042C0000F91FF90EF900C940339662309F478C0A6
:1042D0008091A520882351F08C2FE2DD809103206E
:1042E000C81336C081E18093032032C00C2F10E048
:1042F00081E090E00C2E02C0880F991F0A94E2F72B
:104300002091A1203091A22082239323000F111F1E
:10431000892B81F08C2FA0DEC0930320F801E3529B
:10432000F44D8081918164E670E00E94084A6093B8
:10433000C8310EC08C2FD4DDC0930320F801E352A6
:10434000F44D8CE991E3808391838FE78093C831AA
:10435000CF911F910F91FF90EF9049CB662381F190
:104360006C2F8091632F4FD9EC2EF12C00E021E0CF
:1043700030E040E081110FC06FE78C2F0E942D3D8F
:10438000F701EE0FFF1FE352F44D8CE991E38083B8
:1043900091834FE70CC060E08C2F0E942D3DF70108
:1043A000EE0FFF1FE352F44D1082118240E06C2F9C
:1043B0008091632FCF911F910F91FF90EF903BC998
:1043C000CF911F910F91FF90EF9008952F923F9200
:1043D0004F925F926F927F928F929F92AF92BF9215
:1043E000CF92DF92EF92FF920F931F93CF93DF93C1
:1043F000CDB7DEB72997CDBFDEBF0E94104496EC43
:10440000C92E91E3D92E26ECA22E21E3B22E3FE352
:10441000832E3FE2932E44EC442E4EE2542E8DE741
:104420009BE28A839B83EDEDFBE2E887F98751EFFE
:10443000E52E5BE2F52E712C22242394312C809101
:104440004C2090914D208C839D83E0914A20F091E7
:104450004B20EE83FF83872D0E94FE438983082F24
:10446000880F110B0115110509F447C184EF870D61
:10447000843038F580913D2F90913E2F019709F5BA
:10448000E885F985808191810E94622E8823C9F098
:10449000F7018081F9818F0FF70180838B303CF029
:1044A0008E819F81E885F9858083918388C0863FCE
:1044B0000CF085C08C819D81E885F985808391838E
:1044C0007EC0E885F985808191810E946B2EE88508
:1044D000F985208131818823A1F12436310520F42A
:1044E000101611063CF00CC02933F1E33F0740F0F1
:1044F00017FF06C0F7018485F9818F0FF7018487C4
:10450000F701848584306CF02436310508F057C0FB
:1045100084E690E0E885F98580839183F70114862D
:104520004EC08D3F0CF04BC02933314308F447C0D7
:1045300088E391E3E885F98580839183F701148608
:104540003EC0F3E0F71588F080913D2F90913E2F0B
:10455000019771F4498180E54802200D311D112435
:10456000E885F9852083318320C0F7E0F71588F0CE
:1045700080913D2F90913E2F019759F4498184E617
:104580004802200D311D1124E885F98520833183EF
:104590000CC0F2EBF09FC001F19F900D1124280F89
:1045A000391FE885F98520833183E885F985808185
:1045B00091810E94552EE885F98580839183E88555
:1045C000F985808191810E944E2E682E80913D2F29
:1045D00090913E2F8130910509F075C0872DF2D85A
:1045E0008130910531F190F08230910509F466C077
:1045F000039709F082C0F2016082F4016082462DC7
:1046000060E1670D87E00E94033977C0662D70E096
:1046100080E090E00E94D5462DEC3CEC48E351E46C
:104620000E943A460E94A746872D1DD8F401608259
:1046300064C0F60180819181009761F1FEE4F09FF2
:104640009001F19F300D301B1124E885F9854081E0
:104650005181240F351F2083318317FF03C011952B
:1046600001951109F4E6F09F9001F19F300D11249E
:10467000820F931FF60180839183F5018081F98178
:104680008F0F88321CF4F501808337C047E2F501B3
:10469000408333C0662D70E080E090E00E94D546F4
:1046A0002DEC3CEC48E351E40E943A460E94A746B8
:1046B000EA81FB816083F40160821FC0F201678E92
:1046C000F40160821AC08330910579F4462D672D7C
:1046D0008091632F0E941B1B00E021E030E040E04E
:1046E000662D872D0E942D3D08C0029731F48091E0
:1046F0000320871102C06092C8310E943F4482218A
:104700009321892B21F061E0872D5CDD09C00E9497
:10471000444482219321892B19F060E0872D52DDDA
:104720008CEF870D843088F40E943A4482219321D3
:10473000F601892B31F080819181019680839183EC
:1047400004C010821182F5011082220C331C739474
:10475000F2E0CF0ED11C4FEFA41AB40A8FEF881AE3
:10476000980A98E0490E511CEA81FB813196EA8350
:10477000FB83888599850296888799879FEFE91A38
:10478000F90AE0E17E1267CE2996CDBFDEBFDF9148
:10479000CF911F910F91FF90EF90DF90CF90BF903E
:1047A000AF909F908F907F906F905F904F903F90D1
:1047B0002F900895CF92DF92EF92FF920F931F9365
:1047C000CF93882309F442C08091A520882361F00B
:1047D00081E090E0B2D2CF911F910F91FF90EF90C6
:1047E000DF90CF900C949F3481E08093A52005E862
:1047F0001BE291E8C92E9BE2D92EC0E08C2F0E94CB
:10480000391BF8018083F60181916F01F8018183E2
:10481000E12CF12C6E2D8C2F0E94031BF801EE0D64
:10482000FF1D8283FFEFEF1AFF0A80E1E816F10413
:1048300089F7CF5F0E5E1F4FC43001F7CF911F91F4
:104840000F91FF90EF90DF90CF9008951092A520E8
:1048500005E81BE281E8C82E8BE2D82EC0E0F80103
:1048600060818C2F0E94331BF8018181F6018193B6
:104870006F01E12CF12CF801EE0DFF1D42816E2D30
:104880008C2F0E941B1BFFEFEF1AFF0A80E1E81636
:10489000F10489F7CF5F0E5E1F4FC43001F7CF914F
:1048A0001F910F91FF90EF90DF90CF900C94FB1B26
:1048B000DF92EF92FF920F931F93CF93DF9380913C
:1048C000C731882339F080913D2F90913E2F892B5D
:1048D00009F466C00E944944D82EC0E0D1E002E04D
:1048E00010E0EE24E394F12C8091A0209D2D9827D8
:1048F0009D2361F08D2389F4C33009F44AC0C0F4CC
:10490000C130C1F0C23059F00E94CB1ADD0FCF5F29
:10491000C63051F7D092A02043C0C23019F40E9493
:104920003F1BF4CFC330B8F4C13081F780E003C03F
:10493000C430B9F481E020913D2F30913E2F2130D9
:10494000310539F08111E2CFE0923D2FF0923E2FF8
:10495000DDCF30DFDBCFC43049F3C530B9F680E0BE
:1049600003C0C53089F681E020913D2F30913E2F64
:104970002230310549F4882321F081E08093A5207D
:10498000C5CF1092A520C2CF00933D2F10933E2F8C
:10499000BDCF8091A5208111B9CF0E94AF1AB6CFAB
:1049A000DF91CF911F910F91FF90EF90DF900895CD
:1049B000CF93DF93CDB7DEB76397CDBFDEBF8B8BD1
:1049C0008091A6209091A720049769F58B89882370
:1049D00051F18091D63189838981882309F444C0BB
:1049E0008981893008F040C08981882F90E0019743
:1049F000880F991F88559F4DFC0180819181892BDB
:104A000099F18981882F90E00197880F991F885527
:104A10009F4DFC01208131818B89815067ED71E3CD
:104A2000F901199521C08091A6209091A7200397A4
:104A3000E1F48B898230C8F08091D6318630A9F4B8
:104A40008091D731813089F481E1E0E2F0E2DE014A
:104A5000129601900D928A95E1F7CE010296BC0163
:104A600081E10E94243901C0000000006396CDBF9F
:104A7000DEBFDF91CF9108959FEF980F983040F4FB
:104A8000E82FF0E0EE0FFF1FEA55FF4D60837183C2
:104A90000895FC018091B820811129C081E08093A4
:104AA000B82086ED91E38093B9209093BA2081815C
:104AB000803F39F582818E3771F483819091122085
:104AC000891711F08F37E9F483E090E08093A620F6
:104AD0009093A7200895811114C08381813089F4B7
:104AE00081E090E08093A6209093A7200895809184
:104AF000A6209091A72081309105F1F4818189371A
:104B000039F082E090E08093A6209093A72008954A
:104B1000A091B920B091BA20CD0102962091042035
:104B2000309105208217930760F784E090E080932E
:104B3000A6209093A7201AC0029761F1A091B920F6
:104B4000B091BA20CD010396209104203091052028
:104B500082179307B0F602978093B9209093BA20FA
:104B600081818C93A091B920B091BA20CD0101969A
:104B70008093B9209093BA2082818C93A091B92020
:104B8000B091BA20CD0101968093B9209093BA20BC
:104B900083818C930895FC011092B8208091A62007
:104BA0009091A72081309105C1F48181893709F066
:104BB00049C0A091B920B091BA20CD0102962091B0
:104BC00004203091052082179307E0F584E090E0FF
:104BD0008093A6209093A7201AC0029799F1A091E4
:104BE000B920B091BA20CD010396209104203091D4
:104BF00005208217930730F502978093B920909390
:104C0000BA2081818C93A091B920B091BA20CD01B6
:104C100001968093B9209093BA2082818C93A091C1
:104C2000B920B091BA20CD0101968093B92090931C
:104C3000BA2083818C938091B9209091BA20865DAF
:104C40009143B6DE1092A6201092A72008952091DD
:104C5000B8202223B9F11092B8202091A6203091DB
:104C6000A7202230310551F1A091B920B091BA208E
:104C70009D012E5F3F4F4091042050910520241745
:104C80003507E0F4FC01CD0101968093B9209093A3
:104C9000BA2081818C93A091B920B091BA20CD0126
:104CA00001968093B9209093BA2082818C93809151
:104CB000B9209091BA20865D91437ADE1092A620A9
:104CC0001092A72008952091B820222349F1109234
:104CD000B8202091A6203091A72022303105E1F0A4
:104CE000A091B920B091BA209D012F5F3F4F409114
:104CF0000420509105202417350770F4FC012093FF
:104D0000B9203093BA2081818C938091B920909101
:104D1000BA20865D91434CDE1092A6201092A72007
:104D20000895EEEBF0E21082118212821382089550
:104D30008091BC209091BD2008958093BC209093D9
:104D4000BD200895DC011C968C911C97E2ECF0E2EA
:104D500084878D919C9111978083918312968D9178
:104D60009C9113978283938314968D919C911597B0
:104D70008483958316968D919C911797868397834C
:104D800018968D919C911997808791871A968D918D
:104D90009C911B9782879387089582EC90E20895F7
:104DA0001F93CF93DF93182FEB016230710528F426
:104DB00061700E940519811150C18091CE20882315
:104DC00019F069D7982F01C090E0E12FF0E0EE0FC5
:104DD000FF1FEE53FF4D0190F081E02DED30F10506
:104DE00008F03BC18827E85FFE4F8F4F0C946D4A57
:104DF000C130D10549F468E0610F292F220F920FCD
:104E0000990F690F4FE722C1CD2B09F026C1892FD9
:104E1000880F980F990F68E0610F690F40E016C185
:104E2000C130D10509F019C1012E01C0CC0F0A947F
:104E3000EAF7E92FF0E0E254FF4D80818C27808370
:104E4000C82311F440E001C04FE7892F880F980F65
:104E5000990F68E0610F690FF9C0C130D10551F4B5
:104E600068E0610F292F220F920F990F690F2FE72A
:104E700041E00CC0CD2B09F0F0C0892F880F980FAE
:104E8000990F68E0610F690F20E040E08091572F93
:104E9000DF91CF911F910C94DB38C130D10509F01F
:104EA000DCC0012E01C0CC0F0A94EAF7E92FF0E034
:104EB000E254FF4D80818C278083C82311F420E0C9
:104EC00001C02FE741E0C11101C040E0692F660F2A
:104ED000960F990F68E0610F690FD8CFC130D105E7
:104EE00039F482E090E08093BC209093BD20B5C05F
:104EF000CD2B09F0B2C00E949F3481E090E08093F6
:104F0000BC209093BD20A9C0C130D10589F783E0B2
:104F100090E08093BC209093BD209FC0219709F022
:104F20009CC0B9D6833008F098C0B5D690E00397FE
:104F300024F4B1D6C1E0C80F12C0C3E010C021975D
:104F400009F08BC0A8D6882309F487C0A4D690E0C6
:104F5000059724F4A0D6CFEFC80F01C0C0E09BD6C0
:104F600040E0682F8091572F0E9403398C2F69C031
:104F7000219709F072C08FD640E0682F8091572F9B
:104F80000E9403394FE760E08091572F0E94033958
:104F900080E0DF91CF911F910C947630219709F03A
:104FA0005CC079D640E0682F8091572F0E9403396A
:104FB0004FE761E08091572F0E94033981E0DF9134
:104FC000CF911F910C947630219709F046C063D69B
:104FD00040E0682F8091572F0E9403394FE762E02D
:104FE0008091572F0E94033982E0DF91CF911F916A
:104FF0000C947630219789F54ED640E0682F809149
:10500000572F0E9403394FE763E08091572F0E948A
:10501000033983E0DF91CF911F910C947630219773
:10502000E1F439D640E0682F8091572F0E94033970
:1050300032D6833020F080E00E94763004C02BD638
:105040008F5F0E94763027D64FE7682F8091572FC9
:10505000DF91CF911F910C940339DF91CF911F9174
:1050600008950F931F93CF93DF930E9449440E94AA
:105070005717882319F0C0E0D1E018C00E948C4473
:10508000827199274297B9F78091BB208271823053
:1050900011F08031A9F584E090E08093BC209093DA
:1050A000BD200E946C1D1092BB202AC00E9490441B
:1050B0000D2F10E080239123892B29F061E070E00F
:1050C0008C2F6EDE15C00E94944480239123892B7F
:1050D00029F060E070E08C2F63DE0AC00E948C44EF
:1050E00080239123892B21F062E070E08C2F58DE21
:1050F000DD0FCF5FC630D1F60E948C448093BB2079
:10510000DF91CF911F910F9108959FE0989FD0015B
:105110001124AB5EBB4C969FF0011124EB5EFB4C5F
:1051200017969C911797878198130CC018969C919D
:105130008085981307C0923029F0943019F081E0EF
:10514000953009F480E008950F931F93CF93DF9378
:10515000CDB7DEB72897CDBFDEBF262F8A01F894E2
:1051600030E8839FC0011124809648E050E0BE01E2
:105170006F5F7F4FE8E02E9F800D911D11240E94EC
:105180004D0578948981982F9F70F801928315823C
:1051900082958F7083838A818F7784838B818187C7
:1051A0008C8182878D81982F9F779387881F88278E
:1051B000881F80838E81982F93709487982F96955F
:1051C00096959370918382958F7086878F81982FA3
:1051D0009770908782958F7086838885982F9F77A8
:1051E0009783881F8827881F85872896CDBFDEBFB5
:1051F000DF91CF911F910F910895AF92BF92CF92FF
:10520000DF92EF92FF920F931F93CF93DF93C5E14D
:10521000D4E37E0110E0612F6F70A701812F82958A
:105220008F7092DF1F5F8FE0E80EF11C103499F74A
:1052300099EDA92E97E3B92E23E2E22EF12C670116
:1052400000E010E0C6010E943C05F501E00FF11FEF
:10525000808388E0C80ED11C0F5F1F4F00311105FD
:1052600089F780E8E80EF11C80E1A80EB11C83E20A
:10527000E81682E0F80619F71092B5381092B638A1
:105280001092B7381092B8381092B9381092BA38D4
:105290001092BB381092BC38E0913321F0E0A9E1C4
:1052A000B8E31D9288E3A932B807D9F7EE0FFF1FC4
:1052B000EB54F74C10821182E5EDF2E325E533E380
:1052C0008CE998E14881DF01A058BF4F442329F0C1
:1052D000808391838D939C9304C0108211821D92D0
:1052E0001C922F9632962E173F0761F788E0809325
:1052F000322182E080933121DF91CF911F910F9174
:10530000FF90EF90DF90CF90BF90AF900895DF9225
:10531000EF92FF920F931F93CF93DF93CDB7DEB73A
:10532000A897CDBFDEBF8091312090913220A0910F
:105330003320B09134208DA39EA3AFA3B8A7809152
:10534000352090913620A0913720B091382089A344
:105350009AA3ABA3BCA38E010F5F1F4F80E2F8019D
:1053600011928A95E9F7F80180E050E19FE74FE359
:1053700032E421E050838183928393834483358395
:10538000268387838F5F38968430A1F780E07E0183
:10539000F1E2EF0EF11CDD24D394D80E86958695AC
:1053A00090E0E5E2F0E0EC0FFD1FE80FF91F20812F
:1053B000F701E80FF91F80812B838C832B878C8763
:1053C0002B8B8C8B2B8F8C8FF894C8010E94B3058C
:1053D0008D2D0E94C5057894F80181818C5F8183B1
:1053E00087818C5F87833896EE15FF05B1F78D2D89
:1053F000803189F6A896CDBFDEBFDF91CF911F9196
:105400000F91FF90EF90DF9008958F929F92AF924F
:10541000BF92CF92DF92EF92FF927B01682F70E0F4
:1054200080E090E00E94D34620916220309163207A
:1054300040916420509165200E94E5474B015C013A
:10544000B70180E090E00E94D3469B01AC01C5010A
:10545000B4010E943A4620915E2030915F20409135
:105460006020509161200E94D2456B017C0120E0B8
:1054700030E040E853E40E94E14718168CF020E049
:1054800030E040E85FE3C701B6010E94364687FF7F
:105490000DC0C12CD12C90E8E92E9FE3F92E06C057
:1054A000C12CD12C80E8E82E83E4F82EC701B60188
:1054B0000E94A746CB01FF90EF90DF90CF90BF9066
:1054C000AF909F908F9008953FE0439FF00111248B
:1054D000EB5EFB4C9081992369F0E62FF0E0EE0F34
:1054E000FF1FEB52FD4C4081518141565841413DD7
:1054F000510510F080E0089590E0DC01A75EB74C04
:105500003C91230F2C9340913221421734F482E3D3
:1055100099E18083918381E00895022E000C330B82
:10552000552741950CF450952417350734F480E63F
:1055300098E18083918381E008952091332130E1C7
:10554000239F800D911D1124FC01EB56FD4C8FE330
:10555000808381E008959FE0499FF0011124EB5E74
:10556000FB4C9085923081F09450923068F070E05E
:10557000660F771FFB01EB52FD4C40815181FA0110
:105580003197EB39F14310F480E00895E82FF0E013
:10559000443651051CF412161CF008C027FF06C043
:1055A000DF01A75EB74C8C91280F2C93E75EF74C78
:1055B00020818091312182176CF44436510554F4D6
:1055C000DB01AB52BD4C84E690E08D939C9310823E
:1055D00081E00895022E000C330B992781950CF47D
:1055E0009095281739076CF44933514354F0DB0187
:1055F000AB52BD4C88E391E38D939C93108281E084
:10560000089581E00895BF92CF92DF92EF92FF92CA
:105610000F931F93CF93DF93C82F0E9410448C2FBA
:105620008295807FDCE2D80F3CE3B32EB80EEE24E7
:10563000E394F12C0C2F10E0000F111FC8018B52C6
:10564000984C6C010755174C0E943F448E219F21B6
:10565000892BB1F02FE741E06D2F8091572F0E94E9
:10566000DB38F601808191818E219F21892B31F5D4
:10567000F801808191818E299F29808391831EC0AA
:105680000E9444448E219F21892BC1F020E040E0FC
:105690006D2F8091572F0E94DB38F6018081918118
:1056A0008E219F21892B51F4F80120813181C7017E
:1056B000809590958223932380839183EE0CFF1C29
:1056C000DF5FBD12C1CF8091D020EC2FF0E0EE0F54
:1056D000FF1FE755F74C21E030E0082E02C0220FF3
:1056E000331F0A94E2F7408151812423352360E07F
:1056F000232B61F00E94003E00E021E030E040E01A
:105700006FE78091D0200E942D3D0BC00E94003E8B
:1057100000E021E030E040E060E08091D0200E9495
:105720002D3D8091D0208F5F803118F48093D02060
:1057300002C01092D020DF91CF911F910F91FF9066
:10574000EF90DF90CF90BF900895AF92BF92CF922D
:10575000DF92EF92FF920F931F93CF93DF93C82FA7
:10576000D0E08FE08C9FF0018D9FF00D1124EB5E57
:10577000FB4C222311F0068501C006812FE02C9FEF
:10578000C0012D9F900D11249C012B5E3B4C790193
:10579000F9018085982F9D7F913009F063C0162F05
:1057A000462F6781802F0E940339F7018585882362
:1057B00009F46BC0A090562F1A1508F466C0B12CDE
:1057C00060914F2F70E06A197B09072E000C880B3F
:1057D000990B0E94D54620E030E04EEF52E40E9443
:1057E0003A469B01AC0160E070E080E89FE30E94D4
:1057F0003A466B017C01612F70E06A197B09072E24
:10580000000C880B990B0E94D5469B01AC01C70187
:10581000B6010E94E5470E94A7466B017C0180917A
:10582000CB389091CC380E945211A60140385105D6
:1058300010F04FE750E08FE08C9FF0018D9FF00D4E
:105840001124EB5EFB4C6781605C802FDF91CF9170
:105850001F910F91FF90EF90DF90CF90BF90AF908E
:105860000C940339811111C0262F41E0F7016781A3
:10587000802FDF91CF911F910F91FF90EF90DF90DC
:10588000CF90BF90AF900C94DB38DF91CF911F91F8
:105890000F91FF90EF90DF90CF90BF90AF90089561
:1058A0004423B9F0282F30E09FE0899FF0011124B4
:1058B000EB5EFB4C8085833061F4F901EE0FFF1F36
:1058C000EB52FD4C80819181C29664E670E00E94AB
:1058D0001C4A862F0895282F22952F70782F7F70CD
:1058E00030E0E72FF0E0611128C0D901AA0FBB1FFB
:1058F000A354B74C41E050E002C0440F551F7A95C5
:10590000E2F7409550956D917C911197462357236E
:105910004D935C9364E0220F331F6A95E1F72752A1
:10592000384CE20FF31F9FE0899FD0011124AB5E3A
:10593000BB4C1A968C91808308959FEF960FD901E6
:10594000AA0FBB1FA354B74C9D37D0F481E090E061
:1059500002C0880F991F7A95E2F74D915C911197DB
:10596000842B952B8D939C93C90124E0880F991F5C
:105970002A95E1F78752984CE80FF91F6083089544
:1059800041E050E002C0440F551F7A95E2F76D9157
:105990007C911197462B572B4D935C9394E0220FEB
:1059A000331F9A95E1F72752384CD901AE0FBF1F2C
:1059B0009FE0899FF0011124EB5EFB4C81858C9365
:1059C0000895E82FE295EF70F0E08F7090E061119C
:1059D00003C020E030E002C02FE730E044E0EE0FEB
:1059E000FF1F4A95E1F7E80FF91FEE0FFF1FE75D74
:1059F000F74C208331830895982F882329F081E084
:105A0000913320F09F3711F080E008950895982F8A
:105A1000813328F081E0913620F09F3711F080E04B
:105A20000895089570E020E1829FC0011124FC01D7
:105A3000EB5AFD4CE60FF71F20818B529C4CFC016A
:105A4000E60FF71F90811216A4F4191694F421336F
:105A500010F02F3731F481E0913350F09F3749F443
:105A600009C0213630F4915381E0903318F001C021
:105A7000089580E00895AF92BF92CF92DF92EF92A7
:105A8000FF920F931F93CF93DF93F82E0E948218FB
:105A90008111E8C080913321CF2DD0E0FE0190E14B
:105AA000899FE00DF11D1124EB56FD4C1081EF2C68
:105AB000E0E18E9FE00C1124CE018F5D9E4D6C01C4
:105AC000FC0180811817A1F08FE0E89EF0011124FD
:105AD000EB5EFB4C248530E041E08081811101C008
